:100000000C94DC000C9404010C9404010C94040185
:100010000C9404010C9404010C9404010C9404014C
:100020000C9404010C9404010C940F050C948105AC
:100030000C9404010C9404010C9404010C9404012C
:100040000C9404010C9404010C9404010C9404011C
:100050000C9404010C9404010C9404010C94090800
:100060000C9404010C94D7070C94B1070C94040170
:100070000C9404010C9404010C9404010C940401EC
:100080000C9404010C9404010C9404010C940401DC
:100090000C9404010C9404010C9404010C940401CC
:1000A0000C9404010C9404010C940401DC03DF03A0
:1000B000CE03D203D603000400040004E303E703E5
:1000C000EB03F103F5030004FB0300000002000949
:1000D0000F0000030401000C0000000000000000FD
:1000E0000000000000000000080B000202020100F6
:1000F000090400000102020000052400100105248B
:1001000001010104240206052406000107058103FC
:1001100010004009040100020A0000000705020265
:100120004000000705830240000004030904120197
:100130000002EF0201404F1B049200010102030183
:10014000537061726B46756E00537061726B4675C9
:100150006E2050726F204D6963726F0000000000C6
:10016000250028002B002E00310000000000240094
:1001700027002A002D0030000404040404030405B1
:100180000202020204030202020206060606060634
:10019000040402020204040408020110408040101A
:1001A000204080408008020401804020100201109D
:1001B000801020404020530811241FBECFEFDAE00A
:1001C000DEBFCDBF11E0A0E0B1E0E8E8F3E102C09E
:1001D00005900D92AE34B107D9F722E0AEE4B1E05C
:1001E00001C01D92AA35B207E1F710E0CCEDD0E0D6
:1001F00004C02197FE010E94B709CB3DD107C9F782
:100200000E9490080C94C2090C940000FC0180919B
:100210006C01811103C08FEF9FEF08959FB7F89491
:1002200082E08093E9002091F20030E0121613067C
:1002300014F421E030E02115310559F0289884E6C6
:1002400080936B018091F10080838091F20088237C
:1002500019F09FBFC90108958BE68093E800F9CF9C
:100260002FB7F89483E08093E9009091E800892FFC
:10027000807295FF04C09091F20080E4891B2FBF2B
:1002800008958091630181110DC082E080935F0128
:1002900084E080936001109262011092610181E01C
:1002A000809363018FE591E0089540915901509149
:1002B0005A01209157013091580142175307B4F465
:1002C0009091E8009570E1F39091E80092FD19C0DB
:1002D0008093F1008091590190915A0101968F739A
:1002E0009927892B19F48EEF8093E80080915901AA
:1002F00090915A01019690935A018093590181E09F
:10030000089580E00895CF92DF92EF92FF920F93CD
:100310001F93CF93DF931F92CDB7DEB7182F062F11
:10032000E42E862F880F8E5F99830E94550183E00B
:100330000E945501F12EC12E9981D92E8C2D8F1935
:10034000801798F4F601E7FE02C0849101C0808115
:100350000E945501182F80E00E9455018123FFEF74
:10036000CF1ADF0A8111EACF01C081E00F90DF913F
:10037000CF911F910F91FF90EF90DF90CF90089554
:10038000DF92EF92FF920F931F93CF93DF93D82EBC
:100390008A017B01E40EF51EEB01CE15DF0571F03D
:1003A000D7FE03C0FE01849101C088810E945501DF
:1003B00021968111F2CF8FEF9FEF01C0C801DF912D
:1003C000CF911F910F91FF90EF90DF9008950F93C1
:1003D0001F93CF93DF931F92CDB7DEB782E089835F
:1003E00042E450E068EE70E080E80E94C0010E94A4
:1003F0004101DC0112960D911C9113970115110515
:1004000069F0D801ED91FC910280F381E02DBE01ED
:100410006F5F7F4FC801099597FF07C089810F90D3
:10042000DF91CF911F910F910895F80100851185FB
:10043000E5CF615030F02091F100FC01208301965E
:10044000F8CF289884E680936B010895CF92DF92CD
:10045000EF92FF920F931F93CF93DF936C017A017A
:100460008B01C0E0D0E0CE15DF0589F0D8016D9199
:100470008D01D601ED91FC910190F081E02DC60136
:100480000995892B11F47E0102C02196ECCFC7019A
:10049000DF91CF911F910F91FF90EF90DF90CF9060
:1004A0000895FC01538D448D252F30E0842F90E07A
:1004B000821B930B541710F0CF960895019708955F
:1004C000FC01918D828D981761F0828DDF01A80F5C
:1004D000B11D5D968C91928D9F5F9F73928F90E07E
:1004E00008958FEF9FEF0895FC01918D828D9817ED
:1004F00031F0828DE80FF11D858D90E008958FEF2A
:100500009FEF0895FC01918D228D892F90E0805CF2
:100510009F4F821B91098F73992708958DE691E073
:100520000E94820221E0892B09F420E0822F0895A5
:10053000FC01848DDF01A80FB11DA35ABF4F2C9180
:10054000848D90E001968F739927848FA689B7894F
:100550002C93A089B1898C9180648C93938D848D28
:10056000981306C00288F389E02D80818F7D8083F7
:100570000895EF92FF920F931F93CF93DF93EC01B7
:1005800081E0888F9B8D8C8D981305C0E889F9894F
:10059000808185FD24C0F62E0B8D10E00F5F1F4F6C
:1005A0000F731127E02E8C8DE8120CC00FB607FCDC
:1005B000FACFE889F989808185FFF5CFCE010E94C5
:1005C0009802F1CF8B8DFE01E80FF11DE35AFF4F2A
:1005D000F0820B8FEA89FB898081806207C0EE89F7
:1005E000FF896083E889F98980818064808381E064
:1005F00090E0DF91CF911F910F91FF90EF900895C0
:10060000CF93DF93EC01888D8823C9F0EA89FB89B9
:10061000808185FD05C0A889B9898C9186FD0FC0B0
:100620000FB607FCF5CF808185FFF2CFA889B98985
:100630008C9185FFEDCFCE010E949802E7CFDF912C
:10064000CF91089580E090E0892B29F00E948E02DE
:1006500081110C9400000895CF93DF931F92CDB7C2
:10066000DEB76983DC01ED91FC910280F381E02D1E
:1006700041E050E0BE016F5F7F4F09950F90DF9121
:10068000CF91089583E08093E9008091F200882360
:1006900019F08AE38093E80008950E94300190E009
:1006A0000895CF93DF931F92CDB7DEB7FC01848509
:1006B000958597FD05C02FEF3FEF358724870BC049
:1006C000CE0101960E940601019719F4898190E0FC
:1006D00002C08FEF9FEF0F90DF91CF9108950F939E
:1006E0001F93CF93DF931F92CDB7DEB78C01FC0130
:1006F0008485958597FF0EC0CE0101960E94060164
:10070000019719F4298130E002C02FEF3FEFF80183
:1007100035872487F801848595850F90DF91CF91E7
:100720001F910F910895FC018485958597FD0BC05D
:100730009FB7F89482E08093E9008091F2009FBF18
:1007400090E0019608959FB7F89482E08093E900C5
:100750008091F2009FBF90E00895089580E090E0BE
:100760000895362F90E0FC01E653FF4F4491FC01C1
:10077000E956FE4F2491FC01E858FE4F84918823EE
:1007800009F451C04423E1F150E0FA013197EF3010
:10079000F105B0F5EA5AFF4F0C94B709909180002B
:1007A0009F7707C0909180009F7D03C0909180004B
:1007B000977F9093800024C094B59F7702C094B532
:1007C0009F7D94BD1DC0909190009F7707C0909130
:1007D00090009F7D03C090919000977F9093900030
:1007E0000FC09091C0009F7703C09091C0009F7D83
:1007F0009093C00005C09091C200977F9093C20073
:10080000E82FF0E0EE0FFF1FE45AFE4FA591B491E0
:100810008FB7F894EC91311103C020952E2301C0BD
:100820002E2B2C938FBF08953FB7F89480915301DE
:1008300090915401A0915501B091560126B5A89B05
:1008400005C02F3F19F00196A11DB11D3FBFBA2F62
:10085000A92F982F8827820F911DA11DB11DBC01C2
:10086000CD0143E0660F771F881F991F4A95D1F786
:1008700008958F929F92AF92BF92CF92DF92EF92A4
:10088000FF926B017C010E9414044B015C01C114B6
:10089000D104E104F104F1F00E941404DC01CB0165
:1008A00088199909AA09BB09883E9340A105B10599
:1008B00070F321E0C21AD108E108F10888EE880E31
:1008C00083E0981EA11CB11CC114D104E104F10401
:1008D00019F7DDCFFF90EF90DF90CF90BF90AF90F2
:1008E0009F908F9008958F929F92AF92BF92CF92D8
:1008F000DF92EF92FF920F931F93CF93DF935C01F0
:100900006B017A0180910B01882309F45BC080910F
:100910006C01882309F456C080915D0180FF05C0F9
:100920008091E00082608093E000E70110E00AEF30
:1009300083E0882E9AE3992E2097D9F10E94300106
:1009400081110AC0015009F43DC061E070E080E00F
:1009500090E00E943904F0CF282F30E0C217D3076F
:100960000CF48C2F4FB7F8948092E9009091E80036
:1009700095FF1DC0282F30E0C21BD30BF601982F26
:10098000915020F081918093F100FACFC20ED31ED6
:10099000112319F09092E80009C08091E80085FDCC
:1009A00006C09092E80011E0209709F010E04FBFD8
:1009B000C3CF1111C3CF5D9884E680935B011E14F1
:1009C0001F0444F081E090E0F5019383828380E08E
:1009D00090E001C0C701DF91CF911F910F91FF906F
:1009E000EF90DF90CF90BF90AF909F908F90089541
:1009F0000E94BD096115710579F0FB01019000208D
:100A0000E9F73197AF01461B570BDC01ED91FC91E3
:100A10000280F381E02D099480E090E008951F9218
:100A20000F920FB60F9211248F939F938091E10044
:100A30009091E100937F9093E10083FF0FC01092AB
:100A4000E90091E09093EB001092EC0092E3909318
:100A5000ED0010926C0198E09093F00082FF20C0AE
:100A600093E09093E9009091F200992319F09AE3B2
:100A70009093E80090915B01992339F090915B018C
:100A8000915090935B01992389F190916B01992387
:100A900039F090916B01915090936B01992341F142
:100AA00084FF10C08091E2008E7E81608093E2001E
:100AB0008091E1008F7E8093E10080915D018E7EC8
:100AC000806111C080FF16C08091E2008E7E80613F
:100AD0008093E2008091E1008E7E8093E10080911E
:100AE0005D018E7E816080935D0104C05D9ACDCFF3
:100AF000289AD6CF9F918F910F900FBE0F901F9085
:100B000018951F920F920FB60F921124CF92DF9279
:100B1000EF92FF920F931F932F933F934F935F9307
:100B20006F937F938F939F93AF93BF93EF93FF93B5
:100B3000CF93DF93CDB7DEB76C97DEBFCDBF1092FA
:100B4000E9008091E80083FFEDC168E0CE014596A1
:100B50000E94190282EF8093E8008D8987FF05C00B
:100B60009091E80090FFFCCF03C09EEF9093E800C7
:100B7000982F907609F0C6C09E892F89188D911103
:100B80000CC0803829F480915E018093F10002C08E
:100B90001092F1001092F10048C1422F50E0512B09
:100BA000913051F4811141C14130510509F03DC1ED
:100BB00080915E018D7F0BC0933061F4811135C14E
:100BC0004130510509F031C180915E01826080930E
:100BD0005E012BC1953041F48091E80080FFFCCF8D
:100BE00020682093E30021C1963009F05FC0EB8CB0
:100BF000FC8C1092E90010925A01109259011230A7
:100C000091F510925801109257010E94E70199E066
:100C1000BE016F5F7F4FDB01E92F1D92EA95E9F777
:100C200099831A8391E09E8390EA98879AEF998737
:100C30002091590130915A01275F3F4F3C832B830C
:100C40008D831092E90010925A0110925901F0928E
:100C50005801E092570149E050E080E00E94C00155
:100C60000E94E701E2C0F0925801E09257010E9411
:100C70004101DC011296ED90FC901397E114F10410
:100C800009F4C0C0D701ED91FC910480F581E02DFD
:100C9000BE016B5E7F4FC7010995009719F00CF0FC
:100CA000C4C0C7C0F701E084F184E8CF973009F4ED
:100CB000C0C0983021F481E08093F100B6C0993033
:100CC00009F0B3C0837009F0B4C0EDE0F1E081E059
:100CD00021E036E39081992361F08093E90020932D
:100CE000EB0091919093EC003093ED008F5F873093
:100CF00089F78EE78093EA001092EA008F8980934B
:100D00006C0193C08B8D9C8D1092E90010925A015A
:100D1000109259019093580180935701898D811148
:100D200056C08E899D89913A59F4813209F081C06B
:100D300047E050E064E071E080E00E94C00175C0CF
:100D4000913209F076C0833289F4888D90E0982F33
:100D500088272F89822BA0E0B0E080930001909338
:100D60000101A0930201B09303015FC0803269F4D6
:100D70008091E80082FFFCCF67E084E091E00E9470
:100D800019028BEF8093E80006C0823209F04DC053
:100D90008F8980930B0180915C01882319F0EEEF1D
:100DA000FAE002C0E0E0F8E08091040190910501D2
:100DB000A0910601B0910701803B9440A105B105C7
:100DC00009F07BC080910B0180FF93C076C00E9428
:100DD0004101DC0112960D911C911397011511052B
:100DE00041F1D801ED91FC910190F081E02DBE011F
:100DF0006B5E7F4FC8010995811117C0F80100850E
:100E00001185ECCF113009F44EC0133091F48F8965
:100E1000882309F445C0823081F440E862E189E426
:100E200091E00E948301882321F08EEF8093E800F7
:100E300079C081E28093EB0075C0813029F440E8ED
:100E400068E080E491E0EDCF833099F70E944101A2
:100E5000DC011296ED90FC9013978E010F5F1F4FEF
:100E60006801E114F10479F0D701ED91FC9106805D
:100E7000F781E02DB801C7010995080F111DF70191
:100E8000E084F184EECFD8011C92F601019000209D
:100E9000E9F73197BF016C197D0940E0C601C1CF68
:100EA0006AE271E002C06EE271E06115710509F25B
:100EB000FB01449150E080E840CF0FB6F894A8952C
:100EC00080916000886180936000109260000FBE86
:100ED000A895EE3F2AE0F20739F08091FE0A909142
:100EE000FF0A91838083A1CF1092FF0A1092FE0A1D
:100EF0009CCFEE3F8AE0F80731F08081918190939A
:100F0000FF0A8093FE0A87E797E7918380839BE03F
:100F100088E10FB6F894A895809360000FBE909377
:100F2000600083CF6C960FB6F894DEBF0FBECDBFC6
:100F3000DF91CF91FF91EF91BF91AF919F918F91F1
:100F40007F916F915F914F913F912F911F910F91E1
:100F5000FF90EF90DF90CF900F900FBE0F901F90FB
:100F600018951F920F920FB60F9211242F933F9353
:100F70004F935F936F937F938F939F93AF93BF93A1
:100F8000EF93FF938DE691E00E949802FF91EF911D
:100F9000BF91AF919F918F917F916F915F914F9191
:100FA0003F912F910F900FBE0F901F9018951F9299
:100FB0000F920FB60F9211242F938F939F93EF935D
:100FC000FF93E0917D01F0917E018081E0918301AA
:100FD000F091840182FD12C09081809186018F5F23
:100FE0008F7320918701821751F0E0918601F0E024
:100FF000E359FE4F958F8093860101C08081FF9158
:10100000EF919F918F912F910F900FBE0F901F9096
:1010100018951F920F920FB60F9211242F933F93A2
:101020008F939F93AF93BF9380914F019091500105
:10103000A0915101B091520130914E0126E0230F51
:101040002D3720F40296A11DB11D05C029E8230FFC
:101050000396A11DB11D20934E0180934F019093E3
:101060005001A0935101B09352018091530190918E
:101070005401A0915501B09156010196A11DB11DD9
:101080008093530190935401A0935501B09356015E
:10109000BF91AF919F918F913F912F910F900FBE74
:1010A0000F901F901895EDE6F1E01382128288EE02
:1010B00093E0A0E0B0E084839583A683B78327E123
:1010C00031E0318320832DEC30E0358724872CEC10
:1010D00030E03787268728EC30E0318B208B29ECF5
:1010E00030E0338B228B2AEC30E0358B248B2EECD6
:1010F00030E0378B268B118E128E138E148EEAE021
:10110000F2E01382128284839583A683B78389E2F7
:1011100091E0918380838FEF9FEF95878487089577
:10112000789484B5826084BD84B5816084BD85B5C2
:10113000826085BD85B5816085BD80916E008160CE
:1011400080936E0010928100809181008260809374
:101150008100809181008160809381008091800076
:1011600081608093800080919100826080939100E3
:1011700080919100816080939100809190008160C6
:10118000809390008091C10084608093C100809121
:10119000C10082608093C1008091C1008160809312
:1011A000C1008091C30081608093C3008091C00022
:1011B00082608093C0008091C20081608093C200F1
:1011C00080917A00846080937A0080917A008260B6
:1011D00080937A0080917A008E7F80937A0080914C
:1011E0007A00806880937A0010926C0110925E0100
:1011F00010925D018091D70081608093D70080EAD2
:101200008093D80089B58F7E89BD89B5826089BDFC
:1012100009B400FEFDCF61E070E080E090E00E9444
:1012200039048091D8008F7C80618093D8008091B0
:10123000E000807F8093E0008091E1008E7E8093CB
:10124000E1008DE08093E200559A209AEEEFFFE7EF
:10125000859194918B3F9C4D19F481E080935C01C2
:10126000E8EAF1E02491E9E8F1E08491882399F03B
:1012700090E0880F991FFC01E659FE4FA591B491AB
:10128000FC01E45AFE4F859194918FB7F894EC914C
:10129000E22BEC938FBF8FEF9FEF90931702809319
:1012A0001602E0917D01F0917E0182E08083E09161
:1012B0007901F0917A011082E0917B01F0917C013B
:1012C00087E6808310928501E0918101F09182018F
:1012D00086E08083E0917F01F091800180818061D0
:1012E0008083E0917F01F09180018081886080831C
:1012F000E0917F01F0918001808180688083E0919E
:101300007F01F091800180818F7D808367E371E0B0
:101310008AE092E00E94FA0463E471E08AE092E0DD
:101320000E94FA0466E471E08DE691E00E94FA04FE
:1013300063E471E08DE691E00E94FA0460E081E1EF
:101340000E94B1035D9A68EE73E080E090E00E9435
:10135000390461E081E10E94B1035D9868EE73E0B9
:1013600080E090E00E9439040E942203CFCFEE0F6C
:10137000FF1F0590F491E02D099481E090E0F8942E
:081380000C94C209F894FFCFA0
:10138800FFFFFFFF00E100000000000000C18081B6
:1013980000000000000000B902260251020003828A
:1013A8000260027402000000002C0373044D034223
:1013B80003930351036F0348656C6C6F20776F725A
:0E13C8006C64000D0A0048656C6C6F2100001B
:00000001FF
