:100000000C9434000C9449000C9449000C94490061
:100010000C9449000C9449000C9449000C9449003C
:100020000C9449000C9449000C9449000C9449002C
:100030000C9449000C9449000C9449000C9449001C
:100040000C9449000C9449000C9449000C9449000C
:100050000C9449000C9449000C9449000C944900FC
:100060000C9449000C94490011241FBECFEFD8E036
:10007000DEBFCDBF11E0A0E0B1E0E8EAF4E002C0ED
:1000800005900D92AA30B107D9F70E947C010C941B
:1000900052020C940000AF92BF92CF92DF92EF9287
:1000A000FF920F931F93CF93DF93CDB7DEB72997BE
:1000B0000FB6F894DEBF0FBECDBF9C016B0189E087
:1000C000E0E0F1E0DE01119601900D928A95E1F7F2
:1000D0007E0189E0E80EF11CE7E0F0E042E0A42EAA
:1000E000B12C89010F5F1F4F0330110570F0C9015A
:1000F000B5010E941B0237FD980135952795805D5B
:10010000D7018E937D013197ECCF81E090E08C0F89
:100110009D1FE80FF91FC90162E070E00E941B02F9
:10012000805D808349E050E0BE016F5F7F4FC60174
:100130000E94430229960FB6F894DEBF0FBECDBFD2
:10014000DF91CF911F910F91FF90EF90DF90CF90B3
:10015000BF90AF900895089508955F9A8FE39CE94A
:100160000197F1F700C0000080E88BB98FE39CE9AC
:100170000197F1F700C000001BB88FE39CE90197DD
:10018000F1F700C00000089580E48BB98FE39CE98B
:100190000197F1F700C000001BB88FE39CE90197BD
:1001A000F1F700C0000080E48BB98FE39CE9019770
:1001B000F1F700C0000080EC8BB98FE39CE9019758
:1001C000F1F700C00000089590E0C097282F229515
:1001D000220F220F207C2BB9EFE3FCE93197F1F7D6
:1001E00000C0000056E0880F991F5A95E1F780681B
:1001F0008BB98FE39CE90197F1F700C000002BB9A0
:10020000EFE3FCE93197F1F700C0000008950F9388
:100210001F93CF93DF938C01C0E0D0E0F801819170
:100220008F010E94E4002196C830D105B9F7DF9113
:10023000CF911F910F9108958FE39CE90197F1F7FA
:1002400000C0000080E98AB980EC8BB9EFE3FCE9DB
:100250003197F1F700C000005F9A8FE39CE90197A6
:10026000F1F700C0000089B1EFE3FCE93197F1F745
:1002700000C000005F9AEFE3FCE93197F1F700C09E
:1002800000001BB8EFE3FCE93197F1F700C0000074
:1002900090ED9AB99BB9EFE3FCE93197F1F700C013
:1002A000000086FB882780F990E0089528E12093DC
:1002B000C100E2ECF0E010821082208126602083F1
:1002C0002081286020839093C5008093C400089506
:1002D0009091C00095FFFCCF8093C6008FE39CE90E
:1002E0000197F1F700C0000008958091C00087FFDA
:1002F000FCCF8091C6000895CF93DF93CDB7DEB7D2
:1003000029970FB6F894DEBF0FBECDBF89E0E0E0BD
:10031000F1E0DE01119601900D928A95E1F787E6F2
:1003200090E00E9456012AEA36EE86E991E02150DB
:10033000304080409040D9F700001AB81BB880EDDB
:100340008AB98BB90E94C40000E010E060EDD62E9F
:10035000802F0E9468010E94AD00BE016F5F7F4F39
:10036000C8010E944B00CE0101960E9407010E9425
:100370001C017C010E94C400EF2869F481E40E9402
:10038000680181E40E94680181E40E946801802F75
:100390000E9468010CC01AB81BB8DAB8DBB80E941A
:1003A000C4000F5F1F4F0115E1E01E0789F61AB860
:1003B0001BB880ED8AB98BB90E94C4000E94AD00C1
:1003C000BE016F5F7F4F8CEE90E00E944B00CE012C
:1003D00001960E9407010E941C010E94C40090E146
:1003E000EFE3FCE93197F1F700C000005C9AEFE31E
:1003F000FCE93197F1F700C000008BB189278BB978
:10040000EFE3FCE93197F1F700C00000FFEF23E2D2
:1004100034EFF15020403040E1F700C000004E9B27
:10042000DFCFEFE3FCE93197F1F700C000008BB1BB
:1004300080588BB9D5CF97FB072E16F4009407D0C0
:1004400077FD09D00E942F0207FC05D03EF490955D
:1004500081959F4F0895709561957F4F0895AA1BD0
:10046000BB1B51E107C0AA1FBB1FA617B70710F09F
:10047000A61BB70B881F991F5A95A9F780959095D1
:10048000BC01CD010895FB01DC014150504048F012
:1004900001900D920020C9F701C01D9241505040BB
:0804A000E0F70895F894FFCF86
:0A04A80030303030303030300000CA
:00000001FF
