:100000000C9434000C9449000C9449000C94490061
:100010000C9449000C9449000C9449000C9449003C
:100020000C9449000C9449000C9449000C9449002C
:100030000C9449000C9449000C9449000C9449001C
:100040000C9449000C9449000C9449000C9449000C
:100050000C9449000C9449000C9449000C944900FC
:100060000C9449000C94490011241FBECFEFD8E036
:10007000DEBFCDBF11E0A0E0B1E0E2EDF2E002C0F2
:1000800005900D92A231B107D9F70E9446010C9458
:1000900067010C94000028E12093C100E2ECF0E03D
:1000A0001082108220812660208320812860208396
:1000B0009093C5008093C40008959091C00095FF6F
:1000C000FCCF8093C600089588E087B98CE088B99A
:1000D0002FEF81EE94E0215080409040E1F700C086
:1000E000000086B18F5B0E945D0017B818B82FEF33
:1000F00081EE94E0215080409040E1F700C0000084
:1001000086B18F5B0E945D0018B82FEF81EE94E0FE
:10011000215080409040E1F700C000000895809198
:10012000C00087FFFCCF8091C60008958CE087B99E
:1001300018B8089588E088B98FE39CE90197F1F732
:1001400000C0000084E088B98FE39CE90197F1F7D3
:1001500000C0000018B80895FF920F931F93CF932B
:10016000DF93EC0188E0F82E04E018B82FEF81EE61
:1001700094E0215080409040E1F700C000001991C8
:10018000113329F481E30E945D00F8B804C018B867
:1001900080E30E945D0008B98FE39CE90197F1F7C5
:1001A00000C000001111E1CFDF91CF911F910F919D
:1001B000FF900895CF93C82F82E70E945D00CC0F77
:1001C000CC0FCC0FC8B92FEF81EE94E021508040C6
:1001D0009040E1F700C0000086B18F5B0E945D0097
:1001E00084E088B92FEF81EE94E021508040904068
:1001F000E1F700C0000018B8CF9108950E945D009B
:1002000017B818B82FEF81EE94E02150804090404D
:10021000E1F700C0000086B18F5B0E945D008FE3B4
:100220009CE90197F1F700C0000084E088B99FEFD6
:1002300021EE84E0915020408040E1F700C00000B2
:1002400086B18F5B0E945D0018B89FEF21EE84E0BD
:10025000915020408040E1F700C0000086B18F5BE4
:100260000C945D0080E091E00E94AC0081E60C946B
:10027000FE0018B889E091E00E94AC0062E780E0DF
:1002800090E00E94DA0081E60C94FE0087E690E0A0
:100290000E944B002FEF39E582E692E0215030407A
:1002A00080409040D9F700C000000E94960083E78C
:1002B0000E945D000E9439018AE00E945D000E9458
:1002C000320186E60E945D000E946400FDCFF89432
:0202D000FFCF5E
:1002D2003030303030303030003130313030313148
:0202E20000001A
:00000001FF
