:100000000C9434000C943E000C943E000C943E0082
:100010000C943E000C943E000C943E000C943E0068
:100020000C943E000C943E000C943E000C943E0058
:100030000C943E000C943E000C943E000C943E0048
:100040000C943E000C943E000C943E000C943E0038
:100050000C943E000C943E000C943E000C943E0028
:100060000C943E000C943E0011241FBECFEFD8E04C
:10007000DEBFCDBF0E9460000C94A5000C94000070
:1000800028E12093C100E2ECF0E010821082208190
:10009000266020832081286020839093C500809370
:1000A000C40008959091C00095FFFCCF8093C600D6
:1000B00008958091C00087FFFCCF8091C60008950D
:1000C00087E690E00E9440002AEA36EE86E991E059
:1000D0002150304080409040D9F700001AB81BB83A
:1000E00080E98AB98BB9C0E18FE39CE90197F1F708
:1000F00000C000005C9A8FE39CE90197F1F700C013
:1001000000008BB18C278BB98FE39CE90197F1F745
:1001100000C0000089B10E9452009FEF23E234EF3B
:10012000915020403040E1F700C000004A9BDCCFF6
:1001300089E60E9452008FE39CE90197F1F700C025
:0E01400000008BB180588BB9CFCFF894FFCF61
:00000001FF
