:100000000C9456000C9460000C9460000C946000FA
:100010000C9460000C9460000C9460000C946000E0
:100020000C9460000C9460000C9460000C946000D0
:100030000C9460000C9460000C9460000C946000C0
:100040000C9460000C9460000C9460000C946000B0
:100050000C9460000C9460000C9460000C946000A0
:100060000C9460000C9460000C9460000C94600090
:100070000C9460000C9460000C9460000C94600080
:100080000C9460000C9460000C9460000C94600070
:100090000C9460000C9460000C9460000C94600060
:1000A0000C9460000C9460000C94600011241FBE3E
:1000B000CFEFDAE0DEBFCDBF0E9462000C947F007C
:1000C0000C94000080E284B985B9109285001092EA
:1000D00084001FBEE1E8F0E0108282E08083E0E867
:1000E000F0E0108281E880838FE08093890082E4D1
:1000F0008093880010926F0080E88FBF0895F89475
:02010000FFCF2F
:00000001FF
