:100000000C9434000C9451000C9451000C94510049
:100010000C9451000C9451000C9451000C9451001C
:100020000C9451000C9451000C9451000C9453000A
:100030000C9451000C9451000C9451000C945100FC
:100040000C9451000C9451000C9451000C945100EC
:100050000C9451000C9451000C9451000C945100DC
:100060000C9451000C94510011241FBECFEFD8E026
:10007000DEBFCDBF11E0A0E0B1E0EEE6F1E002C0EE
:1000800005900D92AC32B107D9F711E0ACE2B1E0C6
:1000900001C01D92A433B107E1F70E946F000C94D8
:1000A000B5000C9400001F920F920FB60F9211240E
:1000B0002F938F939F9325B181E090E000900801EA
:1000C00002C0880F991F0A94E2F7282725B99F914B
:1000D0008F912F910F900FBE0F901F90189514B80D
:1000E00015B881E090E09C010090080102C0220F49
:1000F000331F0A94E2F724B915B8109285001092C4
:1001000084001FBE109281009C010090300102C04B
:10011000220F331F0A94E2F720938100109280008F
:1001200020E8209380002CE92093890020E420938C
:100130008800AC010090000102C0440F551F0A94D2
:10014000E2F79C010090020102C0220F331F0A94C3
:10015000E2F7242B20936F000090040102C0880F67
:0E016000991F0A94E2F78FBFFFCFF894FFCFEC
:10016E000500010007000600050004000300020060
:10017E000100010002000300040006000700010058
:0C018E000200030004000500060007004A
:00000001FF
