:100000000C9434000C9451000C9451000C94510049
:100010000C9451000C9451000C9451000C9451001C
:100020000C9451000C9451000C9451000C9451000C
:100030000C9451000C9451000C9451000C945100FC
:100040000C9451000C9451000C9451000C945100EC
:100050000C9451000C9451000C9451000C945100DC
:100060000C9451000C94510011241FBECFEFD8E026
:10007000DEBFCDBF11E0A0E0B1E0ECE3FBE002C0E9
:1000800005900D92AC36B107D9F711E0ACE6B1E0BE
:1000900001C01D92A237B107E1F70E9402010C9442
:1000A0009C050C940000909389008093880008952B
:1000B0008F929F92AF92BF92CF92DF92EF92FF9278
:1000C0000F931F93CF93DF93CDB7DEB72F970FB664
:1000D000F894DEBF0FBECDBFD62EC72EB82EA92EE8
:1000E0009F938F937F936F9381E291E09F938F9380
:1000F0000E94D9028AE0E7E1F1E0DE011196019069
:100100000D928A95E1F7809108018B879091090102
:100110009C87982B9D8790910A019E87892B8F87BA
:10012000CE0101967C010F900F900F900F900F90D1
:100130000F9000E010E0F701619171917F01660F6F
:10014000771F882777FD8095982F0E94C601D601DA
:10015000F5012B2F3C2D4F2F5A2D0E9476029B012B
:10016000AC0160E074E284EF9AE40E9430010E94E6
:1001700098014B0180E090E00E94C40120E03FEF35
:100180004FE757E40E942C0118160CF19F928F92B2
:1001900080E491E09F938F930E94D9028091810027
:1001A000FE013B96E00FF11F9081892B8093810027
:1001B00080811F928F9385E591E09F938F930E949A
:1001C000D9020FB6F894DEBF0FBECDBF06C00F5FD9
:1001D0001F4F0530110509F0AECFC4012F960FB6A1
:1001E000F894DEBF0FBECDBFDF91CF911F910F916D
:1001F000FF90EF90DF90CF90BF90AF909F908F9047
:100200000C94530014B815B88091060184B98091FC
:10021000060185B910928500109284001FBEE1E8A6
:10022000F0E0108280910C018083E0E8F0E0108221
:100230008091150190910F01892B808360E070E51A
:1002400083EC97E40E94580010926F0080910001A7
:100250008FBF80E090E00895D4D008F481E0089545
:100260000CD00AC102D140F0F9D030F021F45F3F48
:1002700019F0EBC0511134C1EEC00FD198F399239E
:10028000C9F35523B1F3951B550BBB27AA2762175A
:100290007307840738F09F5F5F4F220F331F441F9F
:1002A000AA1FA9F333D00E2E3AF0E0E830D09150D7
:1002B0005040E695001CCAF729D0FE2F27D0660FC4
:1002C000771F881FBB1F261737074807AB07B0E803
:1002D00009F0BB0B802DBF01FF2793585F4F2AF019
:1002E0009E3F510568F0B1C0FBC05F3FECF3983E04
:1002F000DCF3869577956795B795F7959F5FC9F776
:10030000880F911D9695879597F90895E1E0660FFE
:10031000771F881FBB1F621773078407BA0720F077
:10032000621B730B840BBA0BEE1F88F7E0950895E0
:10033000BCD088F09F5790F0B92F9927B751A0F003
:10034000D1F0660F771F881F991F1AF0BA95C9F769
:1003500012C0B13081F0C3D0B1E00895C0C0672FA2
:10036000782F8827B85F39F0B93FCCF38695779519
:100370006795B395D9F73EF4909580957095619502
:100380007F4F8F4F9F4F0895E89409C097FB3EF42D
:1003900090958095709561957F4F8F4F9F4F9923D2
:1003A000A9F0F92F96E9BB279395F6958795779550
:1003B0006795B795F111F8CFFAF4BB0F11F460FF10
:1003C0001BC06F5F7F4F8F4F9F4F16C0882311F068
:1003D00096E911C0772321F09EE8872F762F05C07C
:1003E000662371F096E8862F70E060E02AF09A9517
:1003F000660F771F881FDAF7880F9695879597F90C
:100400000895990F0008550FAA0BE0E8FEEF1616A5
:100410001706E807F907C0F012161306E407F507F8
:1004200098F0621B730B840B950B39F40A2661F06C
:10043000232B242B252B21F408950A2609F4A1400F
:10044000A6958FEF811D811D089597F99F6780E81C
:1004500070E060E008959FEF80EC089500240A9416
:100460001616170618060906089500240A9412168F
:100470001306140605060895092E0394000C11F4C2
:10048000882352F0BB0F40F4BF2B11F460FF04C06F
:100490006F5F7F4F8F4F9F4F089557FD9058440FC8
:1004A000551F59F05F3F71F04795880F97FB991FD3
:1004B00061F09F3F79F08795089512161306140690
:1004C000551FF2CF4695F1DF08C01616170618061D
:1004D000991FF1CF86957105610508940895E894F8
:1004E000BB2766277727CB0197F908950BD0C4CF98
:1004F000B5DF28F0BADF18F0952309F0A6CFABCF0F
:100500001124EECFCADFA0F3959FD1F3950F50E0F1
:10051000551F629FF001729FBB27F00DB11D639FB5
:10052000AA27F00DB11DAA1F649F6627B00DA11D5B
:10053000661F829F2227B00DA11D621F739FB00D01
:10054000A11D621F839FA00D611D221F749F332771
:10055000A00D611D231F849F600D211D822F762F0A
:100560006A2F11249F5750408AF0E1F088234AF007
:10057000EE0FFF1FBB1F661F771F881F9150504053
:10058000A9F79E3F510570F060CFAACF5F3FECF313
:10059000983EDCF3869577956795B795F795E7953F
:1005A0009F5FC1F7FE2B880F911D9695879597F950
:1005B0000895A0E0B0E0EFEDF2E00C947505FE01C7
:1005C000359661917191AF0180916E0190916F01AB
:1005D0000E94ED02E2E00C949105ACE0B0E0E3EFA4
:1005E000F2E00C9465057C016B018A01FC01178225
:1005F0001682838181FFBDC1CE0101964C01F701B6
:100600009381F60193FD859193FF81916F0188237A
:1006100009F4ABC1853239F493FD859193FF819143
:100620006F01853229F4B70190E00E94D504E7CF2D
:10063000512C312C20E02032A0F48B3269F030F4C0
:10064000803259F0833269F420612CC08D3239F048
:10065000803339F4216026C02260246023C02860E2
:1006600021C027FD27C030ED380F3A3078F426FF3F
:1006700006C0FAE05F9E300D1124532E13C08AE0AD
:10068000389E300D1124332E20620CC08E3221F49E
:1006900026FD6BC1206406C08C3611F4206802C0B0
:1006A000883641F4F60193FD859193FF81916F01A6
:1006B0008111C1CF982F9F7D9554933028F40C5F02
:1006C0001F4FFFE3F9830DC0833631F0833771F09C
:1006D000833509F05BC022C0F801808189830E5FF9
:1006E0001F4F44244394512C540115C03801F2E0AB
:1006F0006F0E711CF801A080B18026FF03C0652D2C
:1007000070E002C06FEF7FEFC5012C870E94CA0422
:100710002C0183012C852F77222E17C03801F2E09F
:100720006F0E711CF801A080B18026FF03C0652DFB
:1007300070E002C06FEF7FEFC5012C870E94BF04FD
:100740002C012C852068222E830123FC1BC0832DC5
:1007500090E048165906B0F4B70180E290E00E949C
:10076000D5043A94F4CFF50127FC859127FE8191B9
:100770005F01B70190E00E94D50431103A94F1E096
:100780004F1A51084114510471F7E5C0843611F035
:10079000893639F5F80127FF07C0608171818281B0
:1007A00093810C5F1F4F08C060817181882777FD9E
:1007B0008095982F0E5F1F4F2F76B22E97FF09C09E
:1007C00090958095709561957F4F8F4F9F4F2068D2
:1007D000B22E2AE030E0A4010E940705A82EA81836
:1007E00044C0853729F42F7EB22E2AE030E025C0A0
:1007F000F22FF97FBF2E8F36C1F018F4883579F0CB
:10080000B4C0803719F0883721F0AFC02F2F206196
:10081000B22EB4FE0DC08B2D8460B82E09C024FF0B
:100820000AC09F2F9660B92E06C028E030E005C0B0
:1008300020E130E002C020E132E0F801B7FE07C05D
:1008400060817181828193810C5F1F4F06C060813E
:10085000718180E090E00E5F1F4FA4010E940705A8
:10086000A82EA818FB2DFF77BF2EB6FE0BC02B2D90
:100870002E7FA51450F4B4FE0AC0B2FC08C02B2D84
:100880002E7E05C07A2C2B2D03C07A2C01C0752C2E
:1008900024FF0DC0FE01EA0DF11D8081803311F4AB
:1008A000297E09C022FF06C07394739404C0822F6E
:1008B000867809F0739423FD13C020FF06C05A2CDC
:1008C000731418F4530C5718732C731468F4B7018D
:1008D00080E290E02C870E94D50473942C85F5CF9C
:1008E000731410F4371801C0312C24FF12C0B70163
:1008F00080E390E02C870E94D5042C8522FF17C04E
:1009000021FF03C088E590E002C088E790E0B701CE
:100910000CC0822F867859F021FD02C080E201C010
:100920008BE227FD8DE2B70190E00E94D504A5146B
:1009300038F4B70180E390E00E94D5045A94F7CFD1
:10094000AA94F401EA0DF11D8081B70190E00E94A4
:10095000D504A110F5CF332009F451CEB70180E2C0
:1009600090E00E94D5043A94F6CFF70186819781F2
:1009700002C08FEF9FEF2C96E2E10C948105FC0101
:100980000590615070400110D8F7809590958E0FBA
:100990009F1F0895FC016150704001900110D8F72D
:1009A000809590958E0F9F1F08950F931F93CF935F
:1009B000DF93182F092FEB018B8181FD03C08FEF8F
:1009C0009FEF20C082FF10C04E815F812C813D814E
:1009D000421753077CF4E881F9819F012F5F3F4F55
:1009E00039832883108306C0E885F985812F09950E
:1009F000892B29F72E813F812F5F3F4F3F832E8325
:100A0000812F902FDF91CF911F910F910895FA01BF
:100A1000AA27283051F1203181F1E8946F936E7F3D
:100A20006E5F7F4F8F4F9F4FAF4FB1E03ED0B4E02E
:100A30003CD0670F781F891F9A1FA11D680F791F6F
:100A40008A1F911DA11D6A0F711D811D911DA11D80
:100A500020D009F468943F912AE0269F1124301990
:100A6000305D3193DEF6CF010895462F4770405D2B
:100A70004193B3E00FD0C9F7F6CF462F4F70405DDA
:100A80004A3318F0495D31FD4052419302D0A9F735
:100A9000EACFB4E0A6959795879577956795BA952F
:100AA000C9F700976105710508959B01AC010A2EF5
:100AB00006945795479537952795BA95C9F7620FCC
:100AC000731F841F951FA01D08952F923F924F9270
:100AD0005F926F927F928F929F92AF92BF92CF92CE
:100AE000DF92EF92FF920F931F93CF93DF93CDB7D7
:100AF000DEB7CA1BDB0B0FB6F894DEBF0FBECDBF4F
:100B000009942A88398848885F846E847D848C841F
:100B10009B84AA84B984C884DF80EE80FD800C8128
:100B20001B81AA81B981CE0FD11D0FB6F894DEBF0B
:0C0B30000FBECDBFED010895F894FFCF7B
:100B3C0080402010080402010102040810408001CA
:100B4C000204081020408001000800400000010051
:100B5C00044672657175656E6379206F6620696EE7
:100B6C0074657265737420697320252E32660A00D1
:100B7C00546865204F43206E756D626572206973F1
:100B8C002025640A005072657363616C6172206386
:0C0B9C00686F73652069732025640A00EF
:00000001FF
