:100000000C9434000C943E000C943E000C943E0082
:100010000C943E000C943E000C943E000C943E0068
:100020000C943E000C943E000C943E000C943E0058
:100030000C943E000C943E000C943E000C943E0048
:100040000C943E000C943E000C943E000C943E0038
:100050000C943E000C943E000C943E000C943E0028
:100060000C943E000C943E0011241FBECFEFD8E04C
:10007000DEBFCDBF0E9460000C9469000C940000AC
:1000800028E12093C100E2ECF0E010821082208190
:10009000266020832081286020839093C500809370
:1000A000C40008959091C00095FFFCCF8093C600D6
:1000B00008958091C00087FFFCCF8091C60008950D
:1000C00087E690E00E9440000E9459000E94520082
:0600D000FBCFF894FFCF06
:00000001FF
